S012000041626C616B656D656C6F2E7372656325
S113000049C0000064C0000062C0000060C000007D
S11300105EC000005CC000005AC0000058C0000070
S113002056C0000054C0000052C0000050C0000080
S11300304EC000004CC000004AC0000048C0000090
S1130040CCC2000044C0000042C0000040C0000018
S11300503EC000003CC000003AC0000038C00000B0
S113006036C0000014C3000032C0000030C00000DD
S11300702EC000002CC000002AC0000028C00000D0
S113008026C0000024C0000022C0000020C00000E0
S11300901EC0000011241FBECFEFD0E1DEBFCDBFD4
S11300A011E0A0E0B1E0E6E2FDE000E00BBF02C039
S11300B007900D92AA30B107D9F721E0AAE0B1E088
S11300C001C01D92A632B207E1F762D12AC698CFC9
S11300D082E08093D80090E29093DB0091E09093CB
S11300E0DE008093E20084E08093E30083E1809368
S11300F0E40080E020C0982F9295907F9093ED00CB
S11301001092EE001092EF001092F0001092F100A5
S11301101092F2001092F3001092F4001092F50085
S11301201092F6001092F7001092F9001092F80065
S11301301092FA008F5F8F30F0F2EBEDF0E08081E7
S1130140806880830895EF92FF920F938295807F59
S11301508093ED001092EE00222359F1842F880F32
S1130160880F880F8093F000DB01CA01689414F8AB
S1130170B695A795979587951694D1F78093F10036
S1130180DB01CA01072E7DE0B695A7959795879563
S11301907A95D1F7702D8093F200032E35E1769590
S11301A06795579547953A95D1F7302D4093F300CD
S11301B010C0842F8295880F807E8093F20068940B
S11301C012F876956795579547951694D1F740930D
S11301D0F300EFEEF0E0808190E1299F900111247B
S11301E0282B208380E007C0F701E80FF11D9081E0
S11301F09093FA008F5F8017B8F300640093EF00C8
S11302000F91FF90EF90089588B1886088B982E0DB
S11302108A95F1F700C088B1877F88B90895CF9394
S1130220DF932FE788E391E0215080409040E1F78D
S113023000C0000080E388B9E7DF2AE62A95F1F7D9
S113024000C0D0E2D8B9E0DFC0E8C8B9DDDF8AE693
S11302508A95F1F700C0D8B9D7DFC8B9D5DF9AE6D7
S11302609A95F1F700C018B8CFDF80EF88B9CCDFDA
S11302702AE62A95F1F700C018B8C6DF80E188B9EC
S1130280C3DF8FE99FE00197F1F700C0000018B8C1
S1130290BBDF80E688B9B8DF8FE19EE40197F1F710
S11302A000C00000DF91CF910895CF93C82F2AE6B4
S11302B02A95F1F700C0807F846088B9A5DF20E12A
S11302C0C29FC0011124846088B99EDFCF91089534
S11302D0CF932AE62A95F1F700C0833460F4C82F3F
S11302E0C068807F806888B98FDF20E1C29FC00129
S11302F0112488B989DFCF9108958AE68A95F1F7A8
S113030000C018B881DF80E188B97EDF8FE99FE003
S11303100197F1F700C000000895CF93DF93EC013B
S113032002C02196C2DF88818111FBCFDF91CF917A
S113033008959B01AC01A4E6B0E00ED22FEF33E0A8
S113034040E050E0D8D1CA01B9010895809120015C
S113035090E02091230130912401281B390B309324
S11303600C0120930B0190932401809323010895A1
S113037011B883E082B990E994B985B98CEF87B953
S113038018B881E08AB980E88BB98FEF8DB90895E8
S1130390CF93DF93CDB7DEB7E5970FB6F894DEBF02
S11303A00FBECDBFE5DFA1D192D199D138DF90DE68
S11303B0789480911A01813009F099C080912501C7
S11303C0811178C080912001843620F48AEA8093D8
S11303D0B30004C01092B30010920D0180910D017E
S11303E0813019F48AEA8093B30000991AC080918D
S11303F01101811116C0809114019091150101968B
S113040090931501809314018AEA8093B30080913C
S11304101401909115018C32914018F081E0809381
S11304200D01009B0AC010921501109214018091D5
S11304300D01811102C01092B30001992FC0809167
S1130440100181112BC082E080930E018091120172
S1130450909113010196909313018093120121E06E
S1130460209310014E9768F080912001882321F099
S11304708AEA8093B3001EC01092B30010920E015A
S113048019C080912001882321F08AEA8093B30067
S113049011C01092B30010920E010CC08091100193
S11304A0813041F410921001109213011092120144
S11304B01092B300189911C080910F0181110DC0E1
S11304C080912501813019F41092250103C081E047
S11304D08093250181E080930F01189B06C08091D1
S11304E00F01813011F410920F0110921A018091C2
S11304F01901813009F066C080912501811105C080
S1130500EAE7F0E080818064808380910A018F5F54
S113051080930A018F3010F010920A018EB111E01D
S113052081278EB960911C0170911D0180911E017B
S113053090911F01FEDE60932001DFDE8091B30005
S113054090910C019F9390910B019F931F928F9315
S1130550809120011F928F9380E091E09F938F936D
S11305607E0184E0E80EF11CFF92EF92FFD080E060
S1130570AFDEC701D2DEEADE1093250110931B0122
S1130580809123018068898380910A018A831B8377
S1130590CE0101967C0101E020E040E051E060E002
S11305A070E081E0D0DD02E020E045E550E060E06D
S11305B070E082E0C8DD109219010FB6F894DEBF36
S11305C00FBECDBF80911801813009F0F2CE9BB1EE
S11305D089278BB910921801ECCE1F920F920FB697
S11305E00F9211242F933F934F935F936F937F93B5
S11305F08F939F93AF93BF9340911601509117012E
S11306004F5F5F4F509317014093160181E0809331
S11306101A019A01ADECBCEC90D09695879596950D
S11306208795969587959C01220F331F880F991FF4
S1130630880F991F880F991F820F931F4817590716
S113064019F481E0809319019A0136952795ABE757
S1130650B4E173D09695879562E3689F9001699F92
S1130660300D11244217530719F481E080931801C7
S1130670BF91AF919F918F917F916F915F914F91B6
S11306803F912F910F900FBE0F901F9018951F92BE
S11306900F920FB60F9211248F939F93AF93BF9332
S11306A08091780090917900A0E0B0E080931C01E3
S11306B090931D01A0931E01B0931F01BF91AF91B0
S11306C09F918F910F900FBE0F901F9018958DE002
S11306D084BD8DE487BD82E080936E00089583E637
S11306E08093B0001092B300089510927C008FECB8
S11306F080937A000895A1E21A2EAA1BBB1BFD0168
S11307000DC0AA1FBB1FEE1FFF1FA217B307E407EC
S1130710F50720F0A21BB30BE40BF50B661F771F44
S1130720881F991F1A9469F7609570958095909524
S11307309B01AC01BD01CF010895A29FB001B39FFD
S1130740C001A39F700D811D1124911DB29F700DD6
S1130750811D1124911D0895F0DFA59F900DB49F74
S1130760900DA49F800D911D112408950F931F9344
S1130770CF93DF93CDB7DEB72E970FB6F894DEBFD5
S11307800FBECDBF0D891E8986E08C831A83098331
S11307908FEF9FE79E838D83AE01475E5F4F6F8926
S11307A0788DCE01019610D0EF81F885E00FF11F0E
S11307B010822E960FB6F894DEBF0FBECDBFDF9128
S11307C0CF911F910F9108952F923F924F925F9274
S11307D06F927F928F929F92AF92BF92CF92DF924D
S11307E0EF92FF920F931F93CF93DF93CDB7DEB7B2
S11307F02B970FB6F894DEBF0FBECDBF6C017B0103
S11308008A01FC0117821682838181FFBFC1CE0158
S113081001963C01F6019381F70193FD859193FFC5
S113082081917F01882309F4ADC1853239F493FDA8
S1130830859193FF81917F01853221F4B60190E087
S1130840D6D1E8CF912C212C312CFFE1F315D8F02F
S11308508B3279F038F4803279F08332A1F4232D8D
S113086020611DC08D3261F0803369F4232D216035
S113087016C0832D8260382EE32DE4603E2E2AC0FC
S1130880F32DF8601DC037FC2DC020ED280F2A3051
S113089040F08E32B9F436FC75C1232D2064322E1B
S11308A019C036FE06C08AE0989E200D1124922EAF
S11308B011C0EAE02E9E200D1124222EF32DF062A9
S11308C03F2E08C08C3621F4832D8068382E02C058
S11308D0883641F4F70193FD859193FF81917F015F
S11308E08111B3CF982F9F7D9554933028F40C5FDA
S11308F01F4F9FE399830DC0833631F0833771F026
S1130900833509F055C020C0F801808189830E5FCA
S11309101F4F88248394912C530112C02801F2E0C4
S11309204F0E511CF801A080B18036FE03C0692D22
S113093070E002C06FEF7FEFC5014ED14C01820120
S1130940F32DFF773F2E15C0280122E0420E511CE3
S1130950F801A080B18036FE03C0692D70E002C0AA
S11309606FEF7FEFC5012DD14C01F32DF0683F2EC1
S1130970820133FC19C0822D90E088169906A0F4F8
S1130980B60180E290E033D12A94F5CFF50137FC2B
S1130990859137FE81915F01B60190E028D1211045
S11309A02A9421E0821A91088114910479F7E1C014
S11309B0843611F0893639F5F80137FE07C06081B5
S11309C07181828193810C5F1F4F08C060817181A6
S11309D0072E000C880B990B0E5F1F4FF32DFF762B
S11309E03F2E97FF09C090958095709561957F4F34
S11309F08F4F9F4FF0683F2E2AE030E0A30133D1A0
S1130A00882E861844C0853731F4232D2F7EB22ECC
S1130A102AE030E025C0932D997FB92E8F36C1F09E
S1130A2018F4883579F0AEC0803719F0883721F092
S1130A30A9C0E92FE061BE2EB4FE0DC0FB2DF46009
S1130A40BF2E09C034FE0AC0292F2660B22E06C06C
S1130A5028E030E005C020E130E002C020E132E0CF
S1130A60F801B7FE07C060817181828193810C5FB8
S1130A701F4F06C06081718180E090E00E5F1F4FC0
S1130A80A301F1D0882E8618FB2DFF773F2E36FE6A
S1130A900DC0232D2E7FA22E891458F434FE0BC0D2
S1130AA032FC09C0832D8E7EA82E05C0B82CA32C41
S1130AB003C0B82C01C0B92CA4FE0FC0FE01E80D80
S1130AC0F11D8081803321F49A2D997EA92E09C0CD
S1130AD0A2FE06C0B394B39404C08A2D867809F0AC
S1130AE0B394A3FC10C0A0FE06C0B21480F4280C7A
S1130AF0922C9B180DC0B21458F4B60180E290E019
S1130B0076D0B394F8CFB21418F42B1802C0982CF2
S1130B10212CA4FE0FC0B60180E390E068D0A2FEB1
S1130B2016C0A1FC03C088E790E002C088E590E00D
S1130B30B6010CC08A2D867851F0A1FE02C08BE26A
S1130B4001C080E2A7FC8DE2B60190E050D0891488
S1130B5030F4B60180E390E04AD09A94F8CF8A94B6
S1130B60F301E80DF11D8081B60190E040D08110C1
S1130B70F6CF222009F44ECEB60180E290E037D0C1
S1130B802A94F7CFF6018681978102C08FEF9FEFF9
S1130B902B960FB6F894DEBF0FBECDBFDF91CF9179
S1130BA01F910F91FF90EF90DF90CF90BF90AF9087
S1130BB09F908F907F906F905F904F903F902F9079
S1130BC00895FC010590615070400110D8F780959C
S1130BD090958E0F9F1F0895FC0161507040019005
S1130BE00110D8F7809590958E0F9F1F08950F934D
S1130BF01F93CF93DF93FB01238121FD03C08FEF6C
S1130C009FEF2CC022FF16C0468157812481358175
S1130C104217530744F4A081B1819D012F5F3F4FD8
S1130C20318320838C93268137812F5F3F4F378315
S1130C30268314C08B01EC01FB010084F185E02DB7
S1130C400995892BE1F6D80116968D919C911797F9
S1130C50019617969C938E931697CE01DF91CF91B0
S1130C601F910F910895FA01AA27283051F12031DC
S1130C7081F1E8946F936E7F6E5F7F4F8F4F9F4F2C
S1130C80AF4FB1E03ED0B4E03CD0670F781F891F6E
S1130C909A1FA11D680F791F8A1F911DA11D6A0F3C
S1130CA0711D811D911DA11D20D009F468943F91EF
S1130CB02AE0269F11243019305D3193DEF6CF01EE
S1130CC00895462F4770405D4193B3E00FD0C9F7B4
S1130CD0F6CF462F4F70405D4A3318F0495D31FD21
S1130CE04052419302D0A9F7EACFB4E0A695979574
S1130CF0879577956795BA95C9F70097610571054A
S1130D0008959B01AC010A2E069457954795379593
S1130D102795BA95C9F7620F731F841F951FA01DED
S1090D200895F894FFCFD2
S10D0D2625346420256420256400B0
S9030000FC
